:020000040800F2
:10000000E80E0020890100082F06000827060008D6
:100010002B060008E90300089B12000800000000FE
:10002000000000000000000000000000AD0D00080E
:10003000ED03000800000000B70C0008B50F000831
:10004000A3010008A3010008A3010008A301000800
:10005000A3010008A3010008A3010008A3010008F0
:10006000A3010008A3010008A3010008A3010008E0
:10007000A3010008A3010008A3010008A3010008D0
:10008000A3010008A3010008A3010008A3010008C0
:10009000A3010008A3010008A3010008A3010008B0
:1000A000A3010008A3010008A3010008A3010008A0
:1000B000A3010008A3010008A3010008A301000890
:1000C000A3010008A3010008A3010008A301000880
:1000D000A301000819100008A3010008A3010008EB
:1000E000F1030008A3010008A301000800F002F8D2
:1000F00000F03AF80AA090E8000C82448344AAF188
:100100000107DA4501D100F02FF8AFF2090EBAE885
:100110000F0013F0010F18BFFB1A43F0010318473B
:100120000820000028200000103A24BF78C878C1B9
:10013000FAD8520724BF30C830C144BF04680C60ED
:10014000704700000023002400250026103A28BF35
:1001500078C1FBD8520728BF30C148BF0B60704739
:100160001FB51FBD10B510BD00F0A8F81146FFF770
:10017000F7FF01F0D1F800F0C6F803B4FFF7F2FF83
:1001800003BC00F0C7F80000094880470948004751
:10019000FEE7FEE7FEE7FEE7FEE7FEE7FEE7FEE737
:1001A000FEE7FEE704480549054A064B7047000094
:1001B000B90F0008ED000008E8080020E80E002054
:1001C000E80A0020E80A002030B505460B462A461A
:1001D00013F8014B12F8010B08B1A042F8D01CB182
:1001E000002802D06D1CF1E7284630BD10B5431C35
:1001F00002E010F8011B71B18107FAD14FF0013212
:1002000002C88C1A8C4314EAC211F9D0C01A0A062B
:1002100003D0C01E10BDC01A10BD0A0401D0801E3C
:1002200010BD0902FCD0401E10BD00004FF0013C83
:1002300050F8042B51F8043B9A4221D1A2EB0C0355
:10024000934313EACC1317D150F8042B51F8043B15
:100250009A4215D1A2EB0C03934313EACC130BD1B2
:1002600050F8042B51F8043B9A4209D1A2EB0C033D
:10027000934313EACC13DBD04FF00000704700BF6C
:10028000D01A01BAB1FA81F101F0180122FA01F095
:10029000CB40C1F12001DBB2C0B2C01A2CFA01F38D
:1002A000D11A914311EAC311E6D1704770477047E4
:1002B0007047000000487047840800207546FFF72B
:1002C000F9FFAE4605006946534620F00700854613
:1002D00018B020B5FFF766FFBDE820404FF00006DC
:1002E0004FF000074FF000084FF0000B21F007011E
:1002F000AC46ACE8C009ACE8C009ACE8C009ACE861
:10030000C0098D4670470446AFF300802046FFF7D2
:1003100034FF000001491820ABBEFEE726000200B2
:10032000704700002DE9F8430546894614461E46ED
:100330000027B84644B92846FFF758FF00EB800075
:100340004FF6FF7101EA400400F0B4F908232A4691
:100350000021084600F0AEFB002730E0284600F000
:1003600093FD4FF0000826E01B48007801281BD1C0
:1003700049461A48FFF728FF50B100201649087077
:100380000623164A102100F095FB0120BDE8F883F2
:1003900013A11248FFF718FF18B100200E4908708A
:1003A000F4E700200C4908700A2000F097FF08F1DC
:1003B00001001FFA80F8A045D6DB781CC7B2B7420F
:1003C000CCDB062001231A4630210090002000F0EB
:1003D0004BFB0020DAE7000018000020200000207E
:1003E0004552524F5200000000BFFEE77047000028
:1003F00010B54FF4804000F069F8012811D12D4C60
:1004000000BF2000A4F10104FBD14FF480412A4831
:1004100000F0FBF8294908704FF4804000F050F8D4
:1004200000BF4FF4805000F051F8012811D1214C49
:1004300000BF2000A4F10104FBD14FF480511E48FD
:1004400000F0E3F81D4948704FF4805000F038F890
:1004500000BF4FF4005000F039F8012811D1154CBD
:1004600000BF2000A4F10104FBD14FF40051124859
:1004700000F0CBF81149C8704FF4005000F020F89C
:1004800000BF4FF4004000F021F8012811D1094CC1
:1004900000BF2000A4F10104FBD14FF40041064845
:1004A00000F0B3F8054988704FF4004000F008F8F8
:1004B00000BF10BD400D0300000C01401B000020D8
:1004C0000149086070470000140401400146002003
:1004D0000022074B1B6803EA0102054B14331B681B
:1004E0000B4013B10AB1012000E00020704700006A
:1004F000000401402DE9F0410246002500260020BD
:1005000000230024002791F803C00CF00F0591F898
:1005100003C00CF0100CBCF1000F03D091F802C026
:100520004CEA050591F800C0BCF1000F31D0146809
:1005300000202BE04FF0010C0CFA00F3B1F800C0E2
:100540000CEA03069E4220D183004FF00F0C0CFAF8
:1005500003F7BC4305FA03FC4CEA040491F803C01A
:10056000BCF1280F06D14FF0010C0CFA00FCC2F8C8
:1005700014C00AE091F803C0BCF1480F05D14FF058
:10058000010C0CFA00FCC2F810C0401C0828D1D3A2
:100590001460B1F800C0BCF1FF0F34DD54680020D6
:1005A0002EE000F1080C4FF0010808FA0CF3B1F846
:1005B00000C00CEA03069E4221D183004FF00F0CCD
:1005C0000CFA03F7BC4305FA03FC4CEA040491F867
:1005D00003C0BCF1280F05D100F1080C08FA0CF893
:1005E000C2F8148091F803C0BCF1480F07D100F1A4
:1005F000080C4FF0010808FA0CF8C2F81080401CF3
:100600000828CED35460BDE8F081024600209368EC
:100610000B400BB1012000E0002070470AB10161DE
:1006200000E04161704700BFFEE700BFFEE7704792
:1006300070B5002100230F22C47804B3154C246840
:1006400004F4E064C4F5E064210AC1F10403CA4083
:10065000447804FA03F184781440214309010E4CD4
:100660000678A155047804F01F050124AC400578F4
:100670006D11AD0005F1E025C5F8004109E00478F1
:1006800004F01F050124AC40044D0678761145F8AE
:10069000264070BD0CED00E000E400E080E100E0E9
:1006A00002490143024A1160704700000000FA0548
:1006B0000CED00E000200CE0002106E00022064BDB
:1006C00003EBC0135A544A1CD1B28029F6DB421CFA
:1006D000D0B20828F0DB7047840000202DE9F043F9
:1006E00004460D4616461F46284638E0224631E0AD
:1006F000002A2DDB7F2A2BDC002829DB3F2827DC82
:100700004FEAE07C00EB5C7C4FEAEC0CDFF85880B1
:1007100008EBCC1C1CF802C003464FEAE07800EB63
:1007200058784FEAE808A0EBC8094FF0010808FA2A
:1007300009F82CEA080C01464FEAE07800EB5878FB
:100740004FEAE808DFF8209009EBC81808F802C063
:10075000511C0AB2A1199142CADC411C08B2E91924
:100760008142C3DCBDE8F0838400002038B500245A
:1007700006E0002500E06D1CB5F57A7FFBD3641C14
:10078000B4F57A7FF5D30121082000F095FA142002
:100790008DF8030003208DF802004FF48070ADF84F
:1007A000000069460848FFF7A5FE4FF40070ADF859
:1007B000000069460448FFF79DFE012000F03CFA66
:1007C000012000F045FA38BD000C014070B5054627
:1007D000002411E080212141294009B1012100E0DC
:1007E0000021084600F034FA012000F025FA00202C
:1007F00000F022FA601CC4B2082CEBDB012000F0F0
:100800001BFA002000F018FA70BD10B5012000F0AE
:100810001FFA012000F010FA002000F019FA002061
:1008200000F00AFA10BD10B5002000F011FA012006
:1008300000F002FA012000F00BFA10BD10B5FFF72E
:1008400095FFAE2000F010FAD52000F00DFA8020C0
:1008500000F00AFAA82000F007FA3F2000F004FA9E
:10086000D32000F001FA002000F0FEF9402000F053
:10087000FBF9A12000F0F8F9C82000F0F5F9DA2022
:1008800000F0F2F9122000F0EFF9812000F0ECF90D
:10089000CF2000F0E9F9D92000F0E6F9F12000F0CE
:1008A000E3F9DB2000F0E0F9302000F0DDF9A420CE
:1008B00000F0DAF9A62000F0D7F98D2000F0D4F985
:1008C000142000F0D1F9AF2000F0CEF9FFF7F2FECE
:1008D00000F09EF910BD10B50246012000E0504323
:1008E0000B00A1F10101FAD110BD70B505460C460F
:1008F000A01CC4B245F0B00000F0B6F9102141EAE6
:10090000141000F0B1F904F00F0000F0ADF970BD63
:10091000F8B506460F4614461D460A2C00D1F8BD10
:10092000082D0CD1A4F120000E4901EB001010237A
:10093000082239460090304600F018F80FE0062DE6
:100940000DD1A4F1200000EB4000074901EB40006D
:100950000823062239460090304600F007F800BF11
:10096000DDE7000064130008541900082DE9FF4F6B
:1009700080460E469146DDF834B0002500244A46F4
:1009800031464046039BFFF7A9FE00BF5EE000250D
:1009900058E008EB0500002852DB08EB05007F2833
:1009A0004EDC3046F11706EB5171C9100FB2F1174A
:1009B00006EB5171C910A6EBC10A002E05DA781EAC
:1009C00007B20AF108000FFA80FA3819002817DB7D
:1009D0003819072814DC3819224901EBC01008EB3C
:1009E0000501405C04FB09511BF8011001FA0AF1F2
:1009F000084339191B4A02EBC11108EB0502885460
:100A00003819401C00281BDB3819401C072817DC4C
:100A10003819401C134901EBC01008EB0501405C7C
:100A200004FB09511BF80110CAF1080211410843E7
:100A30003919491C0B4A02EBC11108EB0502885415
:100A4000681CC5B24D45A4DB601CC4B20399481EA6
:100A5000C11700EB5171012202EBE101A14296DCCA
:100A6000BDE8FF8F840000202DE9F0470646894647
:100A700017461D46DDF82080002417E0281B411E84
:100A80000A20FFF728FFB7FBF0F00A21B0FBF1F2D4
:100A900001FB120000F1300A04FB086108B2434672
:100AA00052464946FFF734FF601CC4B2AC42E5DB56
:100AB000BDE8F0872DE9FE4F80468A4614461D4664
:100AC0000027BB46002697E0E05D00F0800058B9A3
:100AD0004FF0010B3846791C8FB2205C8DF8040072
:100AE00000208DF8050013E04FF0020B3846791C0A
:100AF0008FB2205C8DF80400E05D00B980E03846DC
:100B0000791C8FB2205C8DF8050000208DF806005E
:100B100070197F280FDDBBF1010F03D19DF8040090
:100B20000A2808D00026062D01D1082000E0102058
:100B300050440FFA80FABBF1010F1DD19DF804005B
:100B40000A2809D10026062D01D1082000E0102036
:100B500050440FFA80FA4FE09DF804000D284BD066
:100B60009DF8042008EB060108B22B465146FFF71A
:100B7000CFFE701986B23FE04FF000090EE0C9EBDE
:100B8000C90101EB8101204A881801A9FFF74EFB3A
:100B900000B90EE009F101001FFA80F9C9EBC901A3
:100BA00001EB8101184A881818A1FFF73FFB0028C4
:100BB000E5D100BF082D13D1C9EBC90000EB8000BF
:100BC00011490844C01C08EB0601009008B210232C
:100BD0001A465146FFF7CAFE06F1100086B20BE036
:100BE000062D09D108EB060108B206233F22514623
:100BF000FFF78EFEB01D86B2E05D00287FF464AF83
:100C000000BFBDE8FE8F00008E1B00080000000042
:100C100010B500240BE000212046FFF766FE0549D1
:100C200001EBC410802100F02FF8601CC4B2082C26
:100C3000F1DB10BD8400002010B5044622464FF4BD
:100C400080710248FFF7EAFC10BD0000000C014073
:100C500010B5044622464FF400710248FFF7DEFC4F
:100C600010BD0000000C014010B50446FFF7CDFD9B
:100C70007820FFF7ABFD0020FFF7A8FD2046FFF727
:100C8000A5FDFFF7D0FD10BD70B505460E46FFF778
:100C9000BCFD7820FFF79AFD4020FFF797FD002468
:100CA00004E0285DFFF792FD601CC4B2B442F8DB9B
:100CB000FFF7B9FD70BD704729B1064A926902433A
:100CC000044B9A6104E0034A92698243014B9A61A2
:100CD000704700000010024030B5002100220024BF
:100CE00000232D4D6D6805F00C0121B1042905D0BC
:100CF000082923D105E0294D056022E0274D056034
:100D00001FE0254D6D6805F47012234D6D6805F4E4
:100D10008034022505EB92421CB9214D55430560F4
:100D20000BE01D4D6D6805F400351DB11C4D55439C
:100D3000056002E0194D5543056002E0174D05605E
:100D400000BF00BF144D6D6805F0F0010909154D95
:100D50006B5C0568DD4045600F4D6D6805F4E06132
:100D6000090A104D6B5C4568DD4085600A4D6D6871
:100D700005F46051C90A0B4D6B5C4568DD40C560E8
:100D8000054D6D6805F44041890B074D6B5CC568E6
:100D9000B5FBF3F5056130BD0010024000127A008A
:100DA00000093D00000000201000002070470000F6
:100DB00000B587B001218803FFF77EFF01210420E1
:100DC000FFF77AFF18208DF81B004FF40070ADF884
:100DD000180003208DF81A0006A92148FFF78AFBA6
:100DE00048208DF81B004FF48060ADF818000320F8
:100DF0008DF81A0006A91A48FFF77CFB4FF416502D
:100E000002900020ADF814000C20ADF81200002074
:100E1000ADF81000ADF80E00ADF80C0002A91148B5
:100E200000F0C6F9012240F225510E4800F09AF96F
:100E30004FF4A060FFF734FC25208DF8040001205A
:100E40008DF807008DF805008DF8060001A8FFF762
:100E5000EFFB0121034800F042F907B000BD00009C
:100E6000000801400038014010B5044621460548FD
:100E700000F00FFA00BF8021024800F03CF9002882
:100E8000F9D010BD0038014070B50446002504E0DB
:100E9000605DFFF7E9FF681CC5B2605D0028F7D10F
:100EA00070BD10B500F002F810BD00000CB50020B8
:100EB000019000903348006840F480303149086068
:100EC00000BF3048006800F4003000900198401CDA
:100ED0000190009818B90198B0F5A06FF1D1294898
:100EE000006800F4003010B10120009001E0002003
:100EF00000900098012843D12348006840F010007A
:100F0000214908600846006820F003000860084690
:100F1000006840F0020008601A48406819494860BB
:100F20000846406848600846406840F48060486071
:100F30000846406820F47C1048600846406840F449
:100F4000E81048600846006840F08070086000BF04
:100F50000C48006800F000700028F9D0094840688B
:100F600020F00300074948600846406840F002004E
:100F7000486000BF0348406800F00C000828F9D121
:100F80000CBD00000010024000200240042808D1DF
:100F90004FF0E021096941F004014FF0E0221161B6
:100FA00007E04FF0E021096921F004014FF0E02251
:100FB000116170477047000010B51348006840F099
:100FC00001001149086008464068104908400E4970
:100FD0004860084600680E4908400B49086008460A
:100FE000006820F4802008600846406820F4FE0075
:100FF00048604FF41F008860FFF753FF4FF0006018
:101000000449086010BD0000001002400000FFF815
:10101000FFFFF6FE08ED00E010B540F22551234831
:1010200000F076F8012840D1204800F02DF9C4B234
:101030001F48007858B9402C31D11E48007870BB49
:1010400001201B49087000201B49087027E0184840
:10105000007801280FD10D2C03D10220144908700B
:101060001DE0164814490978445413480078401C80
:101070001149087013E00E48007802280FD10A2C9D
:101080000DD101200A49087000200C490A4A127843
:10109000885401200749087000200749087040F271
:1010A0002551024800F00CF800BF10BD0038014087
:1010B00019000020180000201A0000202000002045
:1010C00010B50022002340F66A14A14200D100BFEF
:1010D0000A1201249440A3B2DC43048010BD21B164
:1010E000828942F40052828104E082894DF6FF73C6
:1010F0001A408281704702460020B1F5007F00D17E
:1011000000BF13880B400BB1012000E000207047A6
:1011100070B50246002400230025002040F66A1620
:10112000B14200D100BFC1F3421501F01F030126F7
:1011300006FA03F3012D02D19689334006E0022D11
:1011400002D1168A334001E0968A33400C12012600
:1011500006FA04F41688344013B10CB1012000E003
:10116000002070BDF0B503460024002600250020B5
:1011700040F66A17B94200D100BF1846C1F34214C5
:1011800001F01F06012707FA06F5012C01D10C30EA
:1011900004E0022C01D1103000E014301AB10768CD
:1011A0002F43076002E00768AF430760F0BD00000F
:1011B0002DE9F04786B005460E460024A24600BF42
:1011C000A1460027B08900B100BF2F462C8A4CF6FB
:1011D000FF700440F08804432C82AC894EF6F31073
:1011E0000440B08831890843718908430443AC81C5
:1011F000AC8A4FF6FF400440B0890443AC8201A89A
:10120000FFF76AFD1F48874202D1DDF810A001E018
:10121000DDF80CA0A88900F4004040B10AEBCA0038
:1012200000EB0A1031684900B0FBF1F807E00AEB67
:10123000CA0000EB0A1031688900B0FBF1F86420A5
:10124000B8FBF0F004012009642101FB1089A88992
:1012500000F4004040B1322000EBC900B0FBF1F0D7
:1012600000F00700044308E0322000EB091064217D
:10127000B0FBF1F000F00F0004432C8106B0BDE894
:10128000F08700000038014001468888C0F308005C
:101290007047C1F308028280704700BFFEE700007C
:1012A00010B504466FF00400FFF770FEE11704EB81
:1012B0005171C1F3C701074A11701046007800EB65
:1012C0004001C1EBC0104FF6FF7101EAC0000249B6
:1012D000088010BD140000201600002001460D4AB1
:1012E00012884A434FF0E0235A6100229A6101229A
:1012F0001A6100BF4FF0E022106900F001021AB13C
:1013000000F48032002AF5D000224FF0E0231A6169
:101310009A6170471600002000F000F8FFF78EFA7F
:101320004820FFF7BDFFFFF743FD00BF012340F654
:10133000B83207A107A0FEF7F5FF07E00623084A29
:1013400010210020FFF7B6FBFFF762FCF6E7000074
:101350000000000041542B4350494E3F0D0A00004D
:10136000200000200000000000000000000000003D
:1013700000000000000000F8000000000000003342
:101380003000000000160E00160E000000000000E5
:101390000000000040C07840C0784000043F0404D2
:1013A0003F040400007088FC08300000001820FF93
:1013B000211E0000F008F000E018000000211C03CE
:1013C0001E211E0000F00888700000001E2123244A
:1013D00019272110000000160E0000000000000078
:1013E00000000000000000E01804020000000007F8
:1013F0001820400000020418E000000000402018FF
:1014000007000000404080F0804040000202010FD1
:1014100001020200000000F0000000000101011FB5
:1014200001010100000000000000000000B0700099
:1014300000000000000000000000000000010101A9
:101440000101010100000000000000000030300038
:101450000000000000000000806018040060180612
:101460000100000000E010080810E000000F10204C
:1014700020100F00001010F8000000000020203F96
:101480002020000000700808088870000030282420
:1014900022213000003008888848300000182020C1
:1014A00020110E000000C02010F8000000070424E6
:1014B000243F240000F8088888080800001921202B
:1014C00020110E0000E0108888180000000F112085
:1014D00020110E0000380808C83808000000003F3E
:1014E000000000000070880808887000001C22219D
:1014F00021221C0000E010080810E000000031224A
:1015000022110F00000000C0C000000000000030E9
:1015100030000000000000C0C0000000000080B0EB
:10152000700000000000804020100800000102044C
:1015300008102000404040404040400004040404A3
:10154000040404000008102040800000002010085F
:1015500004020100007048080808F0000000003094
:1015600036010000C030C828E810E0000718272422
:1015700023140B000000C038E0000000203C2302D0
:101580000227382008F8888888700000203F202033
:1015900020110E00C0300808080838000718202065
:1015A0002010080008F808080810E000203F20205C
:1015B00020100F0008F88888E8081000203F20203D
:1015C0002320180008F88888E8081000203F200031
:1015D00003000000C0300808083800000718202069
:1015E000221E020008F808000008F808203F210128
:1015F00001213F20000808F8080800000020203FD3
:101600002020000000000808F8080800C080808042
:101610007F00000008F888C028180800203F20013B
:101620002638200008F8080000000000203F202095
:101630002020300008F8F800F8F80800203F003FAC
:10164000003F200008F830C00008F808203F2000C4
:1016500007183F00E01008080810E0000F102020D5
:1016600020100F0008F808080808F000203F2101AA
:1016700001010000E01008080810E0000F18242401
:1016800038504F0008F8888888887000203F200074
:10169000030C30200070880808083800003820212A
:1016A00021221C00180808F8080818000000203F34
:1016B0002000000008F808000008F808001F20209B
:1016C00020201F000878880000C83808000007386C
:1016D0000E010000F80800F80008F800033C0700BD
:1016E000073C0300081868808068180820302C0325
:1016F000032C30200838C800C83808000000203FFC
:101700002000000010080808C838080020382621EA
:1017100020201800000000FE020202000000007FEE
:1017200040404000000C30C00000000000000001FC
:101730000638C00000020202FE00000000404040E7
:101740007F000000002010080408102000000000A6
:101750000000000000000000000000008080808089
:10176000808080800002040800000000000000006B
:10177000000000000000808080800000001924220A
:1017800022223F2008F8008080000000003F112046
:1017900020110E000000008080800000000E11204B
:1017A00020201100000000808088F800000E112029
:1017B00020103F200000808080800000001F222237
:1017C00022221300008080F0888888180020203FA3
:1017D000202000000000808080808000006B9494B6
:1017E0009493600008F8008080800000203F210072
:1017F00000203F2000809898000000000020203F3B
:1018000020200000000000809898000000C0808028
:10181000807F000008F8000080808000203F2402C4
:101820002D302000000808F8000000000020203FB4
:10183000202000008080808080808000203F200069
:101840003F20003F008080008080000000203F217A
:1018500000203F200000808080800000001F2020AA
:1018600020201F00808000808000000080FFA120D9
:1018700020110E000000008080808000000E1120EA
:1018800020A0FF80808080008080800020203F2179
:10189000200001000000808080808000003324242C
:1018A00024241900008080E0808000000000001FD8
:1018B000202000008080000000808000001F202089
:1018C00020103F20808080000080808000010E304A
:1018D0000806010080800080008080800F300C03AB
:1018E0000C300F0000808000808080000020312EAE
:1018F0000E312000808080000080808080818E708A
:101900001806010000808080808080000021302C3B
:101910002221300000000000807C02020000000054
:10192000003F404000000000FF00000000000000F9
:10193000FF0000000002027C800000000040403FE9
:101940000000000000804040800000800000000097
:10195000000101000000000000000000002F000056
:1019600000000700070000147F147F1400242A7F62
:101970002A120023130864620036495522500000E1
:101980000007000000001C224100000041221C0052
:101990000014083E08140008083E0808000000A0D3
:1019A00060000008080808080000606000000020CF
:1019B00010080402003E5149453E0000427F4000AD
:1019C000004261514946002141454B310018141233
:1019D0007F10002745454539003C4A494930000100
:1019E0007109050300364949493600064949291E4F
:1019F00000003636000000005636000000081422B1
:101A000041000014141414140000412214080002B0
:101A100001510906003E4955592E007C1211127CD5
:101A2000007F49494936003E41414122007F414102
:101A3000221C007F49494941007F09090901003EF4
:101A40004149497A007F0808087F0000417F410032
:101A5000002040413F01007F08142241007F4040A8
:101A60004040007F020C027F007F0408107F003E90
:101A70004141413E007F09090906003E4151215E76
:101A8000007F091929460046494949310001017F73
:101A90000101003F4040403F001F2040201F003F09
:101AA0004038403F006314081463000708700807BB
:101AB00000615149454300007F4141000002040894
:101AC0001020000041417F00000402010204004098
:101AD000404040400000010204000020545454786B
:101AE000007F48444438003844444420003844448B
:101AF000487F00385454541800087E090102001829
:101B0000A4A4A47C007F080404780000447D400065
:101B1000004080847D00007F102844000000417F49
:101B20004000007C04180478007C08040478003825
:101B30004444443800FC242424180018242418FCAD
:101B4000007C0804040800485454542000043F4416
:101B50004020003C4040207C001C2040201C003CD9
:101B60004030403C004428102844001CA0A0A07C29
:101B7000004464544C440000087F41000000007F92
:101B800000000000417F0800000804081008A3AC12
:101B90000000000000000000000000000000000045
:101BA00000000058380000000000000000000000A5
:101BB00000A1A300000000000000000000000000E1
:101BC000000000000000182424180000000000009D
:101BD00000000000C4E300008060F8074020180FF8
:101BE00008C80808281800010000FF00100C034076
:101BF000807F0001061800BAC3001010F01F10F01B
:101C000000808282E2928A86800040221508166156
:101C1000000040807F0000000000CAC0002020209B
:101C2000FE2020FF202020FF202020200000000098
:101C30007F404047444444474040400000BDE700E7
:101C4000000000FE929292FE929292FE000000002E
:101C500008080484621E010001FE02040408080052
:101C6000B9FE0000FC0404FC2050484443444850A2
:101C7000202000000F04040F00FE4242424242FEB8
:101C8000000000E0B60000FC0404FC009052341098
:101C90007F1034529000000F04040F82825A5623A2
:101CA00022524E820200D1AA000000F80808F80C67
:101CB0000B08F80808F800000040407F40407F40D3
:101CC00040407F40407F404000D1F5000824236A17
:101CD000AA2AAA6A2A2A2AEA020200001011151565
:101CE00015FF15151511100F3040F800CCE5000058
:101CF0008060F807101010D0FFD010101000000105
:101D00000000FF1008040B08FF080B04081000CDAA
:101D1000E20000C0301F1010F00000FF20408000E3
:101D20000000814021120C03000000FF00000003AE
:101D30000000CEC2001060028C0000FE92929292CF
:101D400092FE00000004047E01407E42427E427EFC
:101D500042427E4000B6C8000000FC242424FC253A
:101D60002624FC242424040040308F80844C5525F4
:101D70002525554C80808000D0C4000000800000E4
:101D8000E002041800000040800000100C03000076
:101D90003F40404040407800010E00C2CA0000149D
:101DA000A4442434AD6624940444A4140000080917
:101DB0000808090909FD09090B0808090800A1E636
:101DC00000000C120C00C070100808080810300049
:101DD0000000000000000F183020202020301C00E0
:101DE00000CAB10000FC848484FC001010101010A4
:101DF000FF101000003F1010103F0000010640804F
:101E00007F000000BCE40000F8010600F01212128E
:101E1000F2020202FE000000FF0000001F1111117B
:101E20001F0040807F0000000000FF010101310918
:101E3000090909897101010101FFFF80808080800B
:101E4000809681808080808080FFFF01818181FD7C
:101E50008991A1C1FD81818101FFFF808080809FE8
:101E6000888482819F80808080FF000000C0E030F5
:101E70001808080830E0C00000000000FEFF010064
:101E8000000000000000FFFE00000000073F78C0D7
:101E900080000000C0703F0700000000000000004C
:101EA00001010101000000000000000000202020CE
:101EB00020F0F8000000000000000000000000001A
:101EC00000FFFF0000000000000000000000000014
:101ED00080FFFF8000000000000000000001010101
:101EE000010101010101010000000000C0201008F3
:101EF000080808081830F0C00000000003030000C4
:101F0000000080C060381F0700000000C0A090885B
:101F1000868381808080C07800000000010101017B
:101F2000010101010101010000000000E0F01008C2
:101F30000808081830E0C00000000000010100009F
:101F40002020207058CF87000000000078F8800023
:101F50000000000080C07F1E0000000000000001A3
:101F6000010101010000000000000000000000006D
:101F7000008060F8F80000000000000080C0300C15
:101F8000020100FFFF000000000000060504040439
:101F9000040404FFFF04040400000000000000002B
:101FA00001010101010101010000000000E0181819
:101FB000181818181818181800000000007F2010B2
:101FC000080808081830E0800000000078988000B9
:101FD0000000000080E07F1F000000000000000102
:101FE0000101010100000000000000000080E0305D
:101FF000100808080870700000000000FCFF601066
:10200000180808081830E080000000000F3FF0C0FA
:102010008000000080C07F1F000000000000000062
:10202000010101010100000000000000C078181843
:102030001818181818D838180000000001000000FF
:102040000080601C03000000000000000000000091
:10205000F8FF000000000000000000000000000089
:10206000010100000000000000000000C0E0301886
:10207000080808081830E0C00000000087CF5E386C
:10208000383060E0D0C88F030000003E7FC1800080
:102090000000000081C37F3E00000000000000013E
:1020A000010101010000000000000080E070100844
:1020B000080808081060C0000000003F7FE08000B2
:1020C00000000080C020FFFF00000000E0E00101F0
:1020D000010181C0603C0F0300000000000001010D
:1020E000010101000000000000000000000000806D
:1020F000800000000000000000000307070300004C
:10210000000000000000183C3C1800000000000027
:1021100000000000000000000000003C42BD42182A
:102120001842BD423C000000482100080000002089
:10213000200000002801000868210008200000207D
:10214000C80E000044010008000000000102030462
:102150000102030406070809020406080000000043
:08216000000100000000000076
:04000005080000ED02
:00000001FF
